:100000000EC015C014C013C012C011C010C00FC064
:100010000EC00DC00CC00BC00AC009C008C011241E
:100020001FBECFE5D2E0DEBFCDBF0FD063C0E8CFAB
:10003000C498C39A2FE788E391E021508040904014
:10004000E1F700C00000C3980895B998C19ABC9A1E
:10005000C498BB9AC3989FE088E10FB6F894A8951E
:1000600081BD0FBE91BD12BE84E083BF89B782609F
:1000700089BFC398C49A2FE788E391E0215080405C
:100080009040E1F700C00000C49885B7877E85BF27
:10009000C12CD12C760191E0A89508B601FEFCCFC9
:1000A00088B7826088BF2FEFC21AD20AE20AF20A2A
:1000B00086B3C1E0282F227081FDC0E09C1761F05B
:1000C00021110AC0B5DF8FE39DE023E0815090400D
:1000D0002040E1F700C0000089E9C81689E1D80690
:1000E000E104F10410F49C2FD7CFA2DFC12CD12C56
:0800F0007601F9CFF894FFCF6F
:00000001FF
